:020000040800F2
:10000000B022002001010008E52C00087D2A00082C
:10001000E12C000849050008495C000800000000C8
:100020000000000000000000000000007D32000819
:10003000E105000800000000D93000087F32000808
:100040001B0100081B0100081B0100081B01000820
:100050001B0100081B010008E3050008F10500086A
:100060001B0100081B0100081B0100081B01000800
:100070001B0100081B0100081B0100081B010008F0
:100080001B0100081B0100081B0100081B010008E0
:10009000915B00081B0100081B0100081B01000800
:1000A0001B0100081B0100081B0100081B010008C0
:1000B0001B0100081B0100081B0100081B010008B0
:1000C0001B0100081B0100081B0100081B010008A0
:1000D0001B0100081B0100081B0100081B01000890
:1000E0001B0100081B0100081B010008DFF80CD0F1
:1000F00000F0AEF80048004767610008B022002019
:100100000648804706480047FEE7FEE7FEE7FEE7B1
:10011000FEE7FEE7FEE7FEE7FEE7FEE70D33000839
:10012000ED00000840EA01039B0703D009E008C97D
:10013000121F08C0042AFAD203E011F8013B00F8AC
:10014000013B521EF9D27047D2B201E000F8012BF8
:10015000491EFBD270470022F6E710B513460A4647
:1001600004461946FFF7F0FF204610BD80EA010261
:1001700010B502F00043400022D04A001FD0010E0B
:1001800001EB1261C0F35600C2F3560240F40000C6
:1001900042F40002A0FB022000047F39140400D0C6
:1001A000401C50EA124001D44000491EC2B20C0665
:1001B00004EBD010401C4008802A02D003E000204D
:1001C00010BD20F00100002900DA0020184310BD06
:1001D000C10F80EAE0700844CA079623002100F0AE
:1001E00009B80029A8BF7047401C490008BF20F08B
:1001F0000100704710B4B0FA80FC00FA0CF050EA2D
:10020000010404BF10BC704749B1CCF1200421FAAD
:1002100004F411FA0CF118BF012121430843A3EBA8
:100220000C01CB1D4FEA00614FEA102042BF0020B5
:1002300010BC704700EBC35010440029A4BF10BC91
:100240007047401C490008BF20F0010010BC7047F7
:10025000064C074D06E0E06840F0010394E8070013
:1002600098471034AC42F6D3FFF744FF64620008AD
:100270008462000870B58C1810F8015B15F0070354
:1002800001D110F8013B2A1106D110F8012B03E02F
:1002900010F8016B01F8016B5B1EF9D12B0705D437
:1002A0000023521E0DD401F8013BFAE710F8013B80
:1002B000CB1A921C03E013F8015B01F8015B521E9C
:1002C000F9D5A142D8D3002070BD00001CB504466A
:1002D00001221146394800F063FB052000F0ACF91B
:1002E00000200190012201A905F052FF9DF80400B1
:1002F000E52801D001201CBD204605F053FE204614
:1003000005F07EFE607948BB207930B101280CD021
:10031000022812D0032820D117E029482949086073
:10032000294908602949086017E0294825490860DB
:1003300025490860254908600FE0264821490860E2
:10034000214908602149086007E023481D490860E9
:100350001D4908601D49086000BF06E0184819499A
:1003600008601949086019490860012269462D2072
:1003700005F00EFFE079012805D19DF8000040F05E
:100380001000009004E09DF8000020F010000090A4
:10039000207A012805D19DF8000040F0200000904F
:1003A00004E09DF8000020F0200000909DF800106F
:1003B0002D2005F023FF00209DE70000000C0140E8
:1003C0008180803B08000020040000200000002005
:1003D0000402013C2108823C0821043D38B5044652
:1003E000012269462D2005F0D3FE14B1012C1BD14A
:1003F0000FE09DF8000020F0040000909DF8000040
:1004000040F0080000909DF800102D2005F0F6FE49
:100410000AE09DF8000020F0080000909DF8001010
:100420002D2005F0EBFE00BF00BF38BD38B50446F7
:1004300000200090012269462F2005F0A9FE2CB96A
:100440009DF8000020F08000009004E09DF800007E
:1004500040F0800000909DF800102F2005F0CEFEA7
:10046000012269462E2005F093FE9DF8000040F021
:10047000800000909DF800102E2005F0BFFE38BDD2
:100480002DE9FC4104460D46002000900190062213
:100490006946322005F07CFE012D19D120469DF8D9
:1004A00000209DF8011002EB012109B201809DF8A6
:1004B00002209DF8031002EB012109B241809DF852
:1004C00004209DF8051002EB012109B2818032E081
:1004D0008DBB26469DF800209DF8011002EB0121FE
:1004E00008B2FFF775FE0746144801683846FFF763
:1004F0003DFE30609DF802209DF8031002EB0121C3
:1005000008B2FFF765FE07460D4801683846FFF759
:100510002DFE70609DF804209DF8051002EB01216E
:1005200008B2FFF755FE0746064801683846FFF750
:100530001DFEB06000BFBDE8FC810000000000208F
:10054000040000200800002000BFFEE70346042B43
:1005500015D007DC7BB1012B0ED0022B0DD0032B65
:1005600012D10BE0202B0BD0212B0AD0222B09D04B
:10057000232B09D107E008E007E006E005E004E0EE
:1005800003E002E001E000E000BF00BF0020704790
:100590000020704710B500220649074803F097F87D
:1005A0000649054803F08CF8012005490870002031
:1005B00010BD0000C41A00200C0D0020DC16002025
:1005C0007C00002070B504460D462146034803F028
:1005D00077F8024803F050F8002070BD0C0D0020A1
:1005E000704710B5012000F03DF805F0A7FC10BDE4
:1005F00010B5022000F036F805F054FB10BD00BF26
:10060000FEE7000070B50A480468001D0568001D7B
:100610000668344454B108220649204602F030FAF4
:10062000042204491031284602F02AFA70BD000065
:10063000E8F7FF1F6200002070B5044600F0B6F92D
:1006400006462546681C10B104480078054400BFE2
:1006500000F0ACF9801BA842FAD370BD98000020CE
:100660007047000010B5044604480068204020B1DF
:10067000024804602046FFF7F3FF10BD1404014058
:100680002DE9F8470346002294466EE14FF0010839
:1006900008FA02F4D1F8008008EA0400A0427DD1F3
:1006A000DFF8DCA2D1F80480A8EB0A09D0453AD0E3
:1006B00014DCB8F1030F50D009DCB8F1000F31D0D1
:1006C000B8F1010F1CD0B8F1020F49D120E0B8F108
:1006D000110F18D0B8F1120F42D11EE0B9F5881FE2
:1006E00025D006DCB9F5803F20D0B9F5801F37D181
:1006F0001AE0B9F5001F18D0B9F5041F30D117E082
:10070000D1F80CC02DE0D1F80C8008F1040C28E0E1
:10071000D1F80C8008F1080C23E0D1F80C8008F126
:100720000C0C1EE000BF00BF00BF00BF00BF00BF39
:10073000D1F80880B8F1000F02D14FF0040C0BE0A3
:10074000D1F80880B8F1010F03D14FF0080C1C61FB
:1007500002E04FF0080C5C6103E04FF0000C00E099
:1007600000BF00BFFF2801D8984601E003F104084C
:100770004646FF2802D84FEA820803E0A2F10808A3
:100780004FEA88084746D6F800804FF00F0909FA6B
:1007900007F928EA09080CFA07F900E088E048EAB6
:1007A0000908C6F80080D1F8048008F08058B8F134
:1007B000805F7DD100BFDFF8CC81D8F8188048F089
:1007C0000108DFF8C091C9F81880C846D8F8188029
:1007D00008F00108CDF8008000BF00BF4FEAB9382B
:1007E0004FEA920958F829504FEA82784FEA18796F
:1007F0004FF00F0808FA09F825EA0805DFF88881A4
:10080000434502D14FF0000816E0DFF880814345F0
:1008100002D14FF001080FE0DFF87481434502D1A7
:100820004FF0020808E0DFF86C81434502D14FF039
:10083000030801E04FF004084FEA82794FEA197982
:1008400008FA09F848EA0505DFF84C814FEA9209F1
:1008500048F82950D1F8048008F48038B8F5803F72
:100860000AD1DFF83881D8F8008048EA0008DFF8BC
:100870002C91C9F8008009E0DFF82081D8F80080C9
:1008800028EA0008DFF81491C9F80080D1F8048044
:1008900008F40038B8F5003F10D1DFF8008108F106
:1008A0000408D8F8008048EA0008DFF8F09000E07B
:1008B0005AE009F10409C9F800800DE0DFF8DC8096
:1008C00008F10408D8F8008028EA0008DFF8CC9086
:1008D00009F10409C9F80080D1F8048008F48018EF
:1008E000B8F5801F0ED1DFF8B48008F10808D8F8F9
:1008F000008048EA0008DFF8A49009F10809C9F867
:1009000000800DE0DFF8948008F10808D8F8008036
:1009100028EA0008DFF8849009F10809C9F8008086
:10092000D1F8048008F40018B8F5001F0ED1DFF8E4
:100930006C8008F10C08D8F8008048EA0008DFF85D
:100940005C9009F10C09C9F800800DE0DFF84C80DB
:1009500008F10C08D8F8008028EA0008DFF83C907D
:1009600009F10C09C9F80080521CD1F8008028FA5E
:1009700002F8B8F1000F7FF489AEBDE8F8870000F7
:10098000000011100010024000080140000C01405E
:100990000010014000140140080001400004014023
:1009A0000AB1016101E00B0403617047014800686E
:1009B0007047000090000020034800680349097850
:1009C000084401490860704790000020980000200A
:1009D00010B50848006840F0100006490860032080
:1009E00000F0A8F8002000F007F800F02BF8002035
:1009F00010BD00000020024070B504460E4800788B
:100A00004FF47A71B1FBF0F00C490968B1FBF0F5D5
:100A1000284601F0D3FE08B1012070BD102C07D28A
:100A200000222146501E00F047F80548046001E00E
:100A30000120F2E70020F0E7980000209C00002051
:100A40009400002008B500BF1148806940F0010003
:100A50000F4988610846806900F00100009000BFDE
:100A600000BF00BF0846C06940F08050C86108461A
:100A7000C06900F08050009000BF00BF00BF054972
:100A8000486820F0E06040F00070486000BF08BD9A
:100A9000001002400000014001460846002809DB22
:100AA00000F01F0301229A4043099B0003F1E02359
:100AB000C3F8002100BF70472DE9F05F80460D4666
:100AC0001646002705F0C2F8074639462A4633463F
:100AD00001F00700C0F1070ABAF1040F02D94FF084
:100AE000040A01E0C0F1070AD14600F1040ABAF194
:100AF000070F02D24FF0000A01E0A0F1030AD4462A
:100B00004FF0010A0AFA09FAAAF1010A0AEA020AEE
:100B10000AFA0CFA4FF0010B0BFA0CFBABF1010BCC
:100B20000BEA030B4AEA0B042146404605F096F80F
:100B3000BDE8F09F00BF00F00702064B19684FF6B2
:100B4000FF031940044B0B4343EA0221014B196098
:100B500000BF70470CED00E00000FA0570B50546D7
:100B60000C4604F08000802808D104F0070000EB58
:100B7000800605F1280000EBC60105E004EB8406C1
:100B800005F5B47000EBC6011AB900200873CB80DC
:100B900004E0012008730B81180C4881002070BD0F
:100BA000704770B504460D4605EB850304F1280136
:100BB00001EBC3014A692946D4F8E80203F01AF9A7
:100BC00070BD70B504460D4605EB850304F5B471A0
:100BD00001EBC3014A692946D4F8E80203F08AF917
:100BE00070BD70B504460E4606F0800080280AD11C
:100BF00006F0070000EB800104F1280000EBC105BE
:100C00000120687009E006F0070000EB800104F5A0
:100C1000B47000EBC1050020687006F00700287072
:100C200000BF94F8A802012801D1022070BD012064
:100C300084F8A80200BF2946206803F0E3FF00BF44
:100C4000002084F8A80200BF00BFEFE770B504469B
:100C50000E4606F00F006168884201D9012070BD80
:100C600006F0800080280AD106F0070000EB800122
:100C700004F1280000EBC1050120687009E006F0CE
:100C8000070000EB800104F5B47000EBC105002003
:100C900068700020A87006F00700287000BF94F864
:100CA000A802012801D10220D9E7012084F8A80276
:100CB00000BF2946206804F001F900BF002084F835
:100CC000A80200BF00BFCAE72DE9F04105460C4667
:100CD000174607F48040002850D02868B0F850101C
:100CE000207801EBC000801C296801F5806131F893
:100CF0001000C0F30906A069B04203D3A069801BAD
:100D0000A06101E00020A061A069A8B900BF22781D
:100D10005200296831F812104BF68F7201EA020076
:100D200080F4005040F4004141F0800123785B00E2
:100D30002A6822F8131000BF07F04000A8B100BFD6
:100D400000BF22785200296831F8121048F68F72DD
:100D500001EA020040F4004141F0C00123785B0049
:100D60002A6822F8131000BF00BF002E55D0228938
:100D700061693346286804F017FF4EE02868B0F830
:100D80005010207801EBC000801D296801F58061BA
:100D900031F81000C0F30906A069B04203D3A0697E
:100DA000801BA06101E00020A061A069A8B900BF7C
:100DB00022785200296831F812104BF68F7201EA3E
:100DC000020080F4005040F4004141F0800123789B
:100DD0005B002A6822F8131000BF07F04000A8B992
:100DE00000BF00BF22785200296831F8121048F67F
:100DF0008F7201EA020040F4004141F0C001237803
:100E00005B002A6822F8131000BF00BF2EB1628970
:100E100061693346286804F0C7FE3046BDE8F081BA
:100E20002DE9F04705460C46904608F040000028A2
:100E300071D02868B0F85010207801EBC000801CF9
:100E4000296801F5806131F81000C0F30907A06935
:100E5000B84203D9A069C01BA06101E00020A061D5
:100E6000A06900287ED100BF6078C8B900BF29689A
:100E70002A68B2F8502011442278022303EBC20200
:100E800001F5806303EB420000BF028848F2FF33A4
:100E90001A400280028842F40042028000BF13E040
:100EA0006078012810D100BF28682A68B2F8502065
:100EB00010442278022303EBC20200F5806303EBA7
:100EC000420100220A8000BF00BF00BF296860788D
:100ED00010BB00BF2B68D5F800C0BCF850C06344FD
:100EE00094F800C04FF0060909EBCC0C03F58069BB
:100EF00009EB4C0000BFB0F800C048F2FF390CEA23
:100F0000090CA0F800C0B0F800C04CF4004CA0F8E8
:100F100000C000BF11E0C0E0607801280DD1286852
:100F2000B0F8500001442078062303EBC00001F51F
:100F3000806303EB40020020108000BF2178284628
:100F4000FFF72FFE08F48040002816D000BF00BF36
:100F500022785200296831F8121048F68F7201EA9F
:100F6000020000E00AE040F4004141F481412378AE
:100F70005B002A6822F8131000BFCAE108F4804021
:100F8000A8B100BF00BF22785200296831F81210C2
:100F900048F68F7201EA020040F4004141F48142B8
:100FA00023785B00296821F8132000BF00BF94F864
:100FB00024000128E1D1606938446061E069384467
:100FC000E0612169206A884204D32669206A801B77
:100FD00020620BE0206A20B93E46002084F82400FD
:100FE00004E0002084F82400266A206200BF6078B4
:100FF000B8BB00BF2A682968B1F850100A442178AC
:10100000022303EBC10102F5806303EB41010846B3
:1010100000BF56B9038848F2FF3C03EA0C03038083
:10102000038843F40043038019E03E2E0BD800BF31
:10103000710806F0010303B1491C4FF6FF7303EA80
:10104000812303800BE000BF710906F01F0303B981
:10105000491E4FF4004343EA8123038000BF00BFD1
:1010600013E0FFE7607801280FD100BF28682A68E5
:10107000B2F8502010442278022303EBC20200F59C
:10108000806303EB42010E8000BF00BFB3B2228930
:101090006169286804F0B7FD3BE12868B0F850109A
:1010A000207801EBC000801D296801F5806131F8CE
:1010B0001000C0F30907A069B84203D3A069C01BA0
:1010C000A06101E00020A061A06900287DD100BFDF
:1010D0006078C8B900BF29682A68B2F85020114466
:1010E0002278022303EBC20201F5806303EB420086
:1010F00000BF028848F2FF331A400280028842F49F
:101100000042028000BF13E06078012810D100BFC8
:1011100028682A68B2F8502010442278022303EB92
:10112000C20200F5806303EB420100220A8000BF87
:1011300000BF00BF2968607808BB00BF2B68D5F8E6
:1011400000C0BCF850C0634494F800C04FF00609DA
:1011500009EBCC0C03F5806909EB4C0000BFB0F83B
:1011600000C048F2FF390CEA090CA0F800C0B0F842
:1011700000C04CF4004CA0F800C000BF10E0607844
:1011800001280DD12868B0F85000014420780623CA
:1011900003EBC00001F5806303EB400200201080E8
:1011A00000BF21782846FFF7FCFC08F480400028A7
:1011B00016D100BF00BF22785200296831F8121002
:1011C00048F68F7201EA020000E00AE040F40041B4
:1011D00041F4814123785B002A6822F8131000BF94
:1011E00097E008F48040A8B900BF00BF2278520001
:1011F000296831F8121048F68F7201EA020040F4B3
:10120000004141F4814123785B002A6822F81310E1
:1012100000BF00BF94F8240001287AD160693844E7
:101220006061E0693844E0612169206A884204D342
:101230002669206A801B20620BE0206A20B93E46A6
:10124000002084F8240004E0266A0020206284F84C
:10125000240000BF2A68607890BB00BFD5F800C0AA
:101260002968B1F850108C4421784FF0060909EB39
:10127000C1010CF5806909EB4101084600BF76B950
:10128000B0F8009048F2FF3A09EA0A09A0F8009085
:10129000B0F8009049F40049A0F8009020E03E2EFC
:1012A0000FD800BF710806F00109B9F1000F00D096
:1012B000491C4FF6FF7909EA8129A0F800900FE058
:1012C00010E000BF710906F01F09B9F1000F00D14D
:1012D000491E4FF4004949EA8129A0F8009000BF57
:1012E00000BF0FE0607801280CD12868B0F85000EA
:1012F00002442078062101EBC00002F5806101EB79
:1013000040031E8000BFB3B262896169286804F09F
:101310007AFC00BF22785200296831F8121048F692
:10132000BF7201EA020080F0100080F0200040F45B
:10133000004141F0800123785B002A6822F81310F5
:1013400000BF0020BDE8F087024601F0070000EB77
:10135000800302F5B47000EBC300C06970472DE94B
:10136000F04705460E4690461F464FF0000906F02E
:10137000800080280AD106F0070000EB800105F10B
:10138000280000EBC1040120607009E006F00700AE
:1013900000EB800105F5B47000EBC1040020607023
:1013A00006F007002070C4F81080E770607808B17C
:1013B0002078E081022F01D10020207100BF95F834
:1013C000A802012802D10220BDE8F087012085F89B
:1013D000A80200BF2146286803F0EAF900BF0020F8
:1013E00085F8A80200BF4846EEE72DE9F041054622
:1013F0000E461746984606F0070000EB800105F5FB
:10140000B47000EBC1046761C4F818800020E0618B
:10141000607006F00700207006F0070020B9214632
:10142000286803F0E6FD03E02146286803F0E1FDAB
:101430000020BDE8F08170B504460D4605F00700B8
:101440006168884201D9012070BD05F080008028C4
:101450000AD105F0070000EB800104F1280000EB41
:10146000C1060120707007E005EB850104F5B4703A
:1014700000EBC106002070700120B07005F007007D
:10148000307000BF94F8A802012801D10220DBE7E8
:10149000012084F8A80200BF3146206803F07BFDDC
:1014A00005F0070020B904F52C71206803F003FD56
:1014B00000BF002084F8A80200BF00BFC4E72DE9E8
:1014C000F04105460E4690461F4606F0070000EB29
:1014D000800105F1280000EBC104C4F81480A76165
:1014E000012084F8240027620020E0610120607060
:1014F00006F00700207006F0070020B92146286892
:1015000003F077FD03E02146286803F072FD002018
:10151000BDE8F0817FB50446206804F041FB00F48B
:101520000040B0F5004F02D1204601F0DCFB2068FE
:1015300004F036FB00F48060B0F5806F0FD12068B6
:10154000B0F844004FF6FF3108402168A1F844008C
:10155000204600F09FF90021204600F0BBF92068EA
:1015600004F01EFB00F48040B0F5804F08D12068E5
:10157000B0F844004BF6FF7108402168A1F8440020
:10158000206804F00DFB00F40050B0F5005F08D1B6
:101590002068B0F844004DF6FF7108402168A1F8BA
:1015A0004400206804F0FCFA00F48050B0F5805F3D
:1015B0001DD12068B0F840004FF6FB71084021684B
:1015C000A1F840002068B0F840004FF6F7710840DD
:1015D0002168A1F84000204600F06EF92068B0F8BC
:1015E00044004EF6FF7108402168A1F844002068CD
:1015F00004F0D6FA00F40060B0F5006F55D1002574
:1016000007E06900206830F811002DF81500681C0B
:10161000C5B2082DF5D32068B0F8400040F00100B5
:101620002168A1F840002068B0F840004FF6FE7134
:1016300008402168A1F8400000BF2068B0F84400CD
:1016400000F480600028F8D02068B0F844004FF61D
:10165000FF3108402168A1F84400002507E03DF86B
:1016600015006A00216821F81200681CC5B2082D17
:10167000F5D32068B0F8400040F008002168A1F8D8
:1016800040002068B0F844004FF2FF710840216824
:10169000A1F844002068B0F8400040F00400216840
:1016A000A1F84000204600F057F9206804F078FACD
:1016B00000F40070B0F5007F0BD12068B0F8440052
:1016C0004FF6FF5108402168A1F84400204600F081
:1016D000FAF8206804F064FA00F48070B0F5807FB6
:1016E00008D12068B0F844004FF6FF610840216837
:1016F000A1F844007FBD30B585B0044614B901207F
:1017000005B030BD94F8A90228B9002084F8A802D9
:10171000204600F09DF8032084F8A902206803F019
:10172000C0FB142204F110016846FEF7FBFC94E8AC
:101730000F0003F063FA20B1022084F8A90201200F
:10174000DEE70021206804F054FA002531E0012191
:1017500005EB850204F1280000EBC200417005EBA7
:10176000850104F1280000F8315005EB850100EBFC
:10177000C100C581002105EB850204F1280000EBC2
:10178000C200C17005EB850204F1280000EBC20025
:10179000016105EB850204F1280000EBC200416104
:1017A00005EB850204F1280000EBC2008161681C92
:1017B000C5B26068A842CAD800252AE0002105EB1E
:1017C000850204F5B47000EBC200417005EB8501A1
:1017D00004F5B47000F83150002105EB850200EBF0
:1017E000C200C17005EB850204F5B47000EBC200C5
:1017F000016105EB850204F5B47000EBC2004161A4
:1018000005EB850204F5B47000EBC2008161681C31
:10181000C5B26068A842D1D8142204F1100168460C
:10182000FEF780FC94E80F0003F030FB20B10220AB
:1018300084F8A902012063E7002084F82400012035
:1018400084F8A902206803F01EFB002058E700007E
:1018500038B504460D492068884215D100BF0C48B0
:10186000C06940F400000A49C8610846C06900F434
:101870000000009000BF00BF002201211420FFF7EC
:101880001BF91420FFF708F938BD0000005C004088
:101890000010024070B504460125A068022801D05E
:1018A000FEF7ADFE2946D4F8E80202F057FCD4F862
:1018B000E80202F009FC70BD10B50446D4F8E80255
:1018C00002F030FC10BD10B50446D4F8E80202F076
:1018D00034FC10BD70B504460D4600BF94F8A80254
:1018E000012801D1022070BD012084F8A80200BFA8
:1018F00084F824502946206804F07EF900BF0020B7
:1019000084F8A80200BF00BFEDE710B5044604F557
:101910002C71D4F8E80202F038FC10BD10B5044672
:1019200000BF94F8A802012801D1022010BD0120B7
:1019300084F8A80200BF206804F020F901212046A5
:10194000FFF72EF9206803F09BFA00BF002084F80F
:10195000A80200BF00BFE9E710B50446D4F8E802CA
:1019600002F06CFCA06928B10348006840F0060052
:101970000149086010BD000010ED00E0F8B5044614
:1019800000260025207800F0010000286BD00027F9
:101990004348C06900F0805070B900BF4048C0693A
:1019A00040F080503E49C8610846C06900F0805050
:1019B000009000BF00BF01273A48006800F4807023
:1019C000B0B93848006840F4807036490860FEF7C6
:1019D000EDFF064606E0FEF7E9FF801B642801D90B
:1019E0000320F8BD2F48006800F480700028F2D072
:1019F0002B48006A00F440752DB3A08800F44070B5
:101A0000A84220D02648006A20F4407501202649CB
:101A10000860002008602248056205F0010090B1CE
:101A2000FEF7C4FF064608E0FEF7C0FF801B41F248
:101A30008831884201D90320D3E71948006A00F0B1
:101A400002000028F0D01648006A20F44070616857
:101A5000084313490862012F04D10846C06920F0E9
:101A60008050C86100BF207800F00200022807D132
:101A70000B48406820F44040A1680843084948608A
:101A8000207800F01000102807D10548406820F4A5
:101A90008000E1680843024948600020A1E7000097
:101AA00000100240007000404004424270B50446FD
:101AB0000D460CB9012070BD5A48006800F00700BF
:101AC000A8420ED25748006820F007002843554925
:101AD00008600846006800F00700A84201D0012015
:101AE000E9E7207800F0020002281DD1207800F0FC
:101AF0000400042805D14C48406840F4E0604A499D
:101B00004860207800F00800082805D14648406861
:101B100040F46050444948604348406820F0F00079
:101B2000A168084340494860207800F0010078B37C
:101B30006068012806D13C48006800F4003090B984
:101B40000120B8E76068022806D13748006800F035
:101B5000007040B90120AEE73348006800F0020091
:101B600008B90120A7E73048406820F00300616809
:101B700008432D494860FEF719FF064609E0FEF7C5
:101B800015FF801B41F28831884202D9032092E779
:101B900007E02548406800F00C006168B0EB810F59
:101BA000EDD12048006800F00700A8420ED91D487A
:101BB000006820F0070028431A49086008460068BA
:101BC00000F00700A84201D0012074E7207800F05F
:101BD0000400042807D11448406820F4E060E1685C
:101BE000084311494860207800F00800082808D10F
:101BF0000D48406820F46050216940EAC1000A495C
:101C0000486000F019F808494968C1F30311074A10
:101C1000515CC8400649086006480068FEF7ECFEC3
:101C2000002048E700200240001002404C620008FB
:101C30009C00002094000020F0B585B00FF26C0CE1
:101C40009CE8E01001A8A0E8E0101CA52D68009514
:101C500000210022002300240020194D696801F0B2
:101C60000C05F5B1042D02D0082D19D101E015485D
:101C700019E001ADC1F38346AC5D01F4803555B187
:101C80000F4D6D68C5F340451DF805200D4D6543AA
:101C9000B5FBF2F302E00C4D04FB05F3184602E03D
:101CA00000BF084800BF00BF05B0F0BD0203040537
:101CB000060708090A0B0C0D0E0F10100102000098
:101CC0000010024000127A0000093D00F8B50446F9
:101CD0000CB90120F8BD207800F00100002878D070
:101CE000F848406800F00C0004280CD0F548406823
:101CF00000F00C00082811D1F248406800F4803050
:101D0000B0F5803F0AD1EF48006800F400300028A9
:101D10005FD0606800285CD10120DBE700BF60680D
:101D2000B0F5803F06D1E748006840F48030E549CF
:101D3000086028E0606858B9E248006820F4803004
:101D4000E04908600846006820F4802008601AE036
:101D50006068B0F5A02F0BD1DA48006840F480200D
:101D6000D84908600846006840F4803008600AE0FE
:101D7000D448006820F48030D249086008460068E2
:101D800020F48020086000BF606888B1FEF70EFE76
:101D9000054606E0FEF70AFE401B642801D9032031
:101DA00098E7C848006800F400300028F2D010E03E
:101DB000FEF7FCFD054606E0FEF7F8FD401B642833
:101DC00001D9032086E7BF48006800F400300028EE
:101DD000F2D1207800F00200022857D1B9484068BB
:101DE00000F00C0050B1B748406800F00C00082823
:101DF00018D1B448406800F4803098B9B148006800
:101E000000F0020020B12069012801D0012061E723
:101E1000AC48006820F0F800616940EAC100A949B7
:101E2000086033E02069E8B10120A7490860FEF7A7
:101E3000BDFD054606E0FEF7B9FD401B022801D9AD
:101E4000032047E79F48006800F002000028F2D016
:101E50009C48006820F0F800616940EAC100994997
:101E6000086013E0002098490860FEF79FFD0546D2
:101E700006E0FEF79BFD401B022801D9032029E75D
:101E80009048006800F002000028F2D1207800F0AD
:101E9000080008282DD1A069B8B101208B4908603D
:101EA000FEF784FD054606E0FEF780FD401B022894
:101EB00001D903200EE78348406A00F002000028A1
:101EC000F2D0012001F00AF913E000207F490860F8
:101ED000FEF76CFD054606E0FEF768FD401B022894
:101EE00001D90320F6E67748406A00F00200002896
:101EF000F2D1207800F00400042873D10027714843
:101F0000C06900F0805070B900BF6E48C06940F0F1
:101F100080506C49C8610846C06900F0805000904C
:101F200000BF00BF01276A48006800F48070B0B9A4
:101F30006748006840F4807065490860FEF736FD28
:101F4000054606E0FEF732FD401B642801D9032058
:101F5000C0E65F48006800F480700028F2D000BF3F
:101F6000E068012806D15748006A40F00100554951
:101F7000086227E0E06858B95248006A20F0010082
:101F8000504908620846006A20F00400086219E01F
:101F9000E06805280BD14B48006A40F0040049492D
:101FA00008620846006A40F0010008620AE04548FD
:101FB000006A20F00100434908620846006A20F0E8
:101FC0000400086200BFE068A0B1FEF7EFFC054620
:101FD00009E0FEF7EBFC401B41F28831884202D950
:101FE000032077E622E03748006A00F0020000286C
:101FF000EFD012E0FEF7DAFC054608E0FEF7D6FC6B
:10200000401B41F28831884201D9032062E62D4805
:10201000006A00F002000028F0D1012F05D1294804
:10202000C06920F080502749C86100BFE069C8B38B
:102030002448406800F00C00082860D0E0690228BD
:1020400048D1002020490866FEF7B0FC054606E0AE
:10205000FEF7ACFC401B022801D903203AE61948E0
:10206000006800F000700028F2D1206AB0F5803FCF
:1020700007D11448406820F40030A1680843114992
:102080004860D4E9080108430E49496821F47411F5
:1020900008430C49486001200B490866FEF786FC9E
:1020A000054607E03DE0FEF781FC401B022801D910
:1020B00003200FE60348006800F000700028F2D00B
:1020C0002FE0000000100240000042428004424223
:1020D00000700040002014490866FEF767FC0546C2
:1020E00006E0FEF763FC401B022801D90320F1E55E
:1020F0000E48006800F000700028F2D111E0E0699D
:10210000012800D1E6E50948466806F48031206AD6
:10211000814204D106F47011606A814201D001202D
:10212000D8E50020D6E50000000042420010024041
:1021300010B504460CB9012010BD606A38B960685A
:10214000B0F5827F00D105E00021E16102E00021CD
:10215000216161610021A16294F8510028B9002039
:1021600084F85000204600F043F8022084F8510023
:102170002068006820F0400021680860A08800F412
:102180008270218901F404410843A18901F40061AE
:102190000843217C01F002010843217D01F0010187
:1021A0000843218B01F400710843217F01F03801BD
:1021B00008432021095D01F080010843218D01F4CD
:1021C00000510843216808600421A06901EA104019
:1021D000216848602068C06920F400602168C861F7
:1021E00000206065012084F851000020A4E7000071
:1021F00010B586B00446002002900390049005902C
:102200001949206888422DD100BF1848806940F4E0
:102210008050164988610846806900F4805001901A
:1022200000BF00BF00BF0846806940F0040088611D
:102230000846806900F00400019000BF00BFA020A4
:102240000290022003900320059002A90848FEF79F
:1022500017FA4020029000200390049002A904483D
:10226000FEF70EFA06B010BD00300140001002402B
:10227000000801402DE9F8430446884616461D46ED
:102280004FF000096068B0F5827F0DD1A06858B9A1
:10229000042084F8510033464246414620460095CA
:1022A00000F077F9BDE8F88300BF94F850000128EA
:1022B00001D10220F6E7012084F8500000BFFEF7AC
:1022C00075FB074694F85100012802D04FF002092F
:1022D0007EE0B8F1000F00D016B94FF0010977E0A9
:1022E000042084F8510000206065C4F83880A68777
:1022F000E6872063A086E08620646064A068B0F56D
:10230000004F0BD12068006820F040002168086071
:102310002068006820F48040216808602068006818
:1023200000F04000402805D02068006840F04000E0
:1023300021680860E068F8B91AE02068806800F059
:10234000010050B12068007BA16B0870A06B401C9D
:10235000A063E08F401EE0870AE0FEF727FBC01B6A
:10236000A84201D3681C00B915B94FF003092FE04A
:10237000E08F0028E1D11EE01AE02068806800F0BC
:10238000010050B12068C068A16B0880A06B801C60
:10239000A063E08F401EE0870AE0FEF707FBC01B4A
:1023A000A84201D3681C00B915B94FF003090FE02A
:1023B000E08F0028E1D13A462946204600F0A2FEEF
:1023C00008B120206065606D08B14FF0010900BFC1
:1023D000012084F8510000BF002084F8500000BFA5
:1023E00048465FE72DE9F84F0446884616461D46E5
:1023F0004FF0000A00BF94F85000012802D10220DB
:10240000BDE8F88F012084F8500000BFFEF7CEFA37
:102410000746B14694F85100012802D04FF0020A55
:10242000ADE0B8F1000F00D016B94FF0010AA6E0F8
:10243000032084F8510000206065C4F83080A6862F
:10244000E686A063A087E08760642064A068B0F59A
:10245000004F0BD12068006820F040002168086020
:102460002068006840F480402168086020680068A7
:1024700000F04000402805D02068006840F040008F
:1024800021680860E068B0F5006F2FD1606810B176
:10249000B9F1010F09D1206B00882168C860206B59
:1024A000801C2063E08E401EE0861BE02068806870
:1024B00000F0020002280AD1206B00882168C86061
:1024C000206B801C2063E08E401EE0860AE0FEF751
:1024D0006DFAC01BA84201D3681C00B915B94FF0B2
:1024E000030A4CE0E08E0028E0D12EE0606810B1D5
:1024F000B9F1010F09D1206B007821680873206BB6
:10250000401C2063E08E401EE0861BE0206880684F
:1025100000F0020002280AD1206B007821680873BD
:10252000206B401C2063E08E401EE0860AE0FEF730
:102530003DFAC01BA84201D3681C00B915B94FF081
:10254000030A1CE0E08E0028E0D13A4629462046E6
:1025500000F014FE08B120206065A06850B900BFEB
:10256000002000902068C06800902068806800907B
:1025700000BF00BF606D08B14FF0010A00BF01202D
:1025800084F8510000BF002084F8500000BF50467E
:1025900036E72DE9FF5F0446884691461D460E9EAC
:1025A000012002900020019000BF94F85000012803
:1025B00003D1022004B0BDE8F09F012084F8500050
:1025C00000BFFEF7F3F9074694F851B06068039036
:1025D000AA46BBF1010F0BD00398B0F5827F04D15E
:1025E000A06810B9BBF1040F02D002200190DBE01B
:1025F000B8F1000F03D0B9F1000F00D015B90120D8
:102600000190D1E094F85100042802D0052084F80C
:10261000510000206065C4F83890E587A587C4F8AC
:102620003080E586A586206460642068006800F03C
:102630004000402805D02068006840F04000216834
:102640000860E068B0F5006F4AD1606810B1BAF177
:10265000010F09D1206B00882168C860206B801CA5
:102660002063E08E401EE08633E02068806800F042
:102670000200022810D1E08E70B1029801280BD11F
:10268000206B00882168C860206B801C2063E08E6E
:10269000401EE086002002902068806800F0010063
:1026A00068B1E08F58B12068C068A16B0880A06B4A
:1026B000801CA063E08F401EE08701200290FEF79F
:1026C00075F9C01BB04204D3701C10B103200190F7
:1026D0006AE0E08E0028C8D1E08F0028C5D14AE02A
:1026E000606810B1BAF1010F09D1206B0078216840
:1026F0000873206B401C2063E08E401EE08634E0AF
:102700002068806800F00200022810D1E08E70B1CD
:10271000029801280BD1206B007821680873206B88
:10272000401C2063E08E401EE0860020029020685E
:10273000806800F0010068B1E08F58B12068C0687F
:10274000A16B0870A06B401CA063E08F401EE08767
:1027500001200290FEF72AF9C01BB04201D3701C81
:1027600000B916B9032001901EE0E08E0028C7D101
:10277000E08F0028C4D13A463146204600F0FEFCE6
:1027800020B101200190202060650DE0A06850B9C3
:1027900000BF002000902068C0680090206880681A
:1027A000009000BF00BF00BF012084F8510000BFAF
:1027B000002084F8500000BF0198FBE670B5044685
:1027C0002546681EB0F1807F01D301200FE0681E0E
:1027D0004FF0E02148610F214FF0FF3003F03EFA47
:1027E00000204FF0E021886107200861002070BDC3
:1027F00030B502460B4600BF92F83C00012801D1DB
:10280000022030BD012082F83C0000BF022082F887
:102810003D00106844681068816824F070041868EE
:10282000044310684460104D1068A8420BD0106833
:10283000B0F1804F07D00D4D1068A84203D00C4D69
:102840001068A84205D121F0800158680143106842
:102850008160012082F83D0000BF002082F83C002A
:1028600000BF00BFCDE70000002C01400004004085
:102870000008004010B504460CB9012010BD94F8C2
:102880003D0028B9002084F83C00204600F026F8DE
:10289000022084F83D00211D206800F063FD012026
:1028A00084F8460000BF84F83E0001213F20015516
:1028B000402001554120015500BF00BF012084F890
:1028C000420043200155442001554520015500BFD9
:1028D000012084F83D000020D0E7000008B5016821
:1028E000B1F1804F0DD100BF0649C96941F0010126
:1028F000044AD1611146C96901F00101009100BF8C
:1029000000BF08BD00100240014691F83D000128BB
:1029100001D001207047022081F83D00124B086869
:1029200098420BD00868B0F1804F07D00F4B086871
:10293000984203D00E4B086898420CD10868806812
:1029400000F00702062A0CD00868006840F0010079
:102950000B68186005E00868006840F001000B682B
:1029600018600020D6E70000002C01400004004061
:10297000000800402DE9F04104460D4600BF94F8E0
:102980003C00012802D10220BDE8F081012084F83A
:102990003C0000BF022084F83D002068866826F0D5
:1029A000770626F47F46206886602868502833D052
:1029B0000CDC202850D004DC00284BD0102851D14A
:1029C00049E0302849D040284CD139E060282DD04A
:1029D000702807D0B0F5805F03D0B0F5005F41D11B
:1029E0000DE040E0D5E902136A68206800F0F4FCCD
:1029F0002068866846F077062068866033E0D5E96F
:102A000002136A68206800F0E7FC2068806840F4E0
:102A100080402168886026E0EA686968206800F0E4
:102A2000EFFC5021206800F0E2FC1CE0EA686968D5
:102A3000206800F0F8FC6021206800F0D8FC12E06B
:102A4000EA686968206800F0DBFC4021206800F03B
:102A5000CEFC08E000BF00BF00BF2968206800F07E
:102A6000C6FC00E000BF00BF012084F83D0000BFAD
:102A7000002084F83C0000BF00BF85E700BFFEE7F0
:102A800030B50B46002100BF16E00A24B4EB107FDE
:102A900005D9302404EB107403F8114005E04124FB
:102AA00004EB10740A3C03F81140000100254C00AF
:102AB000641C1D554C1CE1B29142E6DB30BD0000A8
:102AC00000B585B00020019002900390049000BFF3
:102AD0003E48806940F010003C49886108468069A2
:102AE00000F01000009000BF00BF00BF08468069E2
:102AF00040F0200088610846806900F020000090C6
:102B000000BF00BF00BF0846806940F00400886134
:102B10000846806900F00400009000BF00BF00BFBD
:102B20000846806940F0080088610846806900F026
:102B30000800009000BF00BF00224FF4005124485D
:102B4000FDF72EFF002201212248FDF729FF4FF457
:102B50000050019001200290002003900220049078
:102B600001A91B48FDF78CFD012001901A48029035
:102B70000120039001A91948FDF782FD0120019071
:102B80000290002003900220049001A91148FDF753
:102B900077FD02200190104802900220039001A9C5
:102BA0000C48FDF76DFD002204210620FDF784FF8F
:102BB0000620FDF771FF002203210720FDF77CFFAF
:102BC0000720FDF769FF05B000BD000000100240BE
:102BD00000100140000C01400000111000080140ED
:102BE00010B50F480F4908604FF48270486000210B
:102BF0000C488160C16002210161012141614902EB
:102C000081612021C16100210162416281620A214A
:102C1000C162FFF78DFA08B1FDF7F1FC10BD0000AD
:102C2000003001406C0C002000B587B000200390FC
:102C3000049005900690019002904FF08040144956
:102C40000860002048600021114881604FF6FF7144
:102C5000C160002101618161FFF70CFE08B1FDF741
:102C6000CEFC4FF48050039003A90948FFF782FE81
:102C700008B1FDF7C4FC00200190029001A90448AE
:102C8000FFF7B6FD08B1FDF7BAFC07B000BD0000C4
:102C9000C40C002010B500220D490E4801F06BF85D
:102CA00008B1FDF7ACFC0C490A4801F0FDFA08B187
:102CB000FDF7A5FC0949074800F0FBFC08B1FDF74A
:102CC0009EFC044801F0BAFB08B1FDF798FC10BD6A
:102CD0002C0000200C0D0020B000002080000020FF
:102CE00000BFFEE770472DE9F0470546EAE1286896
:102CF000B0F844A00AF00F06002E7ED10AF01000B2
:102D0000B0BB00BF2968098848F60F7201EA0200CB
:102D100040F400412A68118000BF05F128042868AA
:102D2000B0F85010207801EBC000801C296801F534
:102D3000806131F81000C0F30900E061E169606969
:102D40000844606100212846FDF72BFF95F8240018
:102D50000028CBD0A0690028C8D195F8240040F005
:102D600080002968A1F84C00002085F82400A9E122
:102D7000FFE705F5B4742868B0F8008008F4006037
:102D800030B32868B0F85010207801EBC000801DE7
:102D9000296801F5806131F81000C0F30900E06195
:102DA000A18B8BB2E28805F52C71286802F0FCFE3D
:102DB00000BF2968098840F68F7201EA020040F0DE
:102DC00080012A68118000BF2846FEF79EFD79E148
:102DD00008F40040002889D000BF2968098840F61F
:102DE0008F7201EA020040F080012A68118000BF62
:102DF0002868B0F85010207800E06FE001EBC000C8
:102E0000801D296801F5806131F81000C0F30900C8
:102E1000E061E06990B1606980B1B4F81CC01FFA4C
:102E20008CF3E2886169286802F0BEFEE16960699E
:102E30000844606100212846FDF7C3FE2868008829
:102E400000F40060002892D100BF2A682968B1F818
:102E500050100A4402F20C41084600BF236953B9DE
:102E6000038848F2FF3C03EA0C030380038843F421
:102E7000004303801EE023693E2B0DD800BF236969
:102E80005908237C03F0010303B1491C4FF6FF737B
:102E900003EA812303800DE000BF23695909237CE5
:102EA00003F01F0303B9491E4FF4004343EA812393
:102EB000038000BF00BF00BF00BF296809884BF630
:102EC0008F7201EA020080F4805080F4005040F4D8
:102ED000004141F080012A681180F3E07100286808
:102EE00030F8118008F4004000287ED000BF720046
:102EF000296831F8121040F68F7201EA020040F0A2
:102F0000800173002A6822F8131000BF06EB8601C7
:102F100005F5B47000EBC104207BB0B92868B0F8A7
:102F20005010207801EBC000801D296801F58061F8
:102F300031F81000C0F30907002F5BD0E288616907
:102F40003B46286802F030FE54E0E078022806D1C3
:102F5000424621462846FDF7B7FE07464AE000BF35
:102F600000BF22785200296831F8121048F68F729B
:102F700001EA020040F4004141F0C00123785B0007
:102F80002A6822F8131000BF00BF21784900286882
:102F900030F8110000F48040A8B12868B0F8501053
:102FA000207801EBC000801C296801F5806131F8B0
:102FB0001000C0F30907EFB1228961693B46286818
:102FC00002F0F2FD16E02868B0F85010207801EB0E
:102FD000C000801D296801F5806131F81000C0F340
:102FE00009073FB16289616900E017E03B46286844
:102FF00002F0DAFDE0693844E061606938446061FC
:10300000A06910B12069B84204D921782846FDF79B
:10301000D8FD03E02146286801F0EBFF08F08000AE
:10302000B0B306EB860105F1280000EBC10400BF38
:103030007200296831F8121048F60F7201EA020096
:1030400040F4004173002A6822F8131000BFE078B2
:10305000032807D0E07828B1E07802282DD108F4C1
:10306000807050BB2868B0F85010207801EBC00089
:10307000801C296801F5806131F81000C0F309094E
:10308000A069484505D9A069A0EB0900A06102E04C
:1030900018E00020A061A06920B921782846FDF73A
:1030A00080FD0FE0606948446061E0694844E06188
:1030B0002146286801F09DFF04E04246214628464B
:1030C000FDF7AEFE2868B0F8440000F40040002888
:1030D0007FF40DAEBDE8F0877047000008B50849E1
:1030E0000968C9084FF47A72B1FBF2F141430091CB
:1030F00000BF00BF00994A1E00920029F9D108BD07
:103100009C000020F8B504460E4615466068B0F5F0
:10311000827F0DD1A068B0F5004F03D0A068B0F554
:10312000806F05D12068006820F0400021680860A9
:103130006068B0F5827F11D1A068B0F5806F0DD1C5
:103140003346002201212046009500F02BF898B16B
:10315000606D40F0200060650320F8BD334600221A
:1031600080212046009500F01DF828B1606D40F0E8
:10317000200060650320F0E70020EEE7F8B5044684
:103180000D4616462B46002280212046009600F070
:1031900009F828B1606D40F0200060650320F8BD9B
:1031A0000020FCE72DE9F84F04460D4690461E46E8
:1031B000DDF82890FDF7FAFBA0EB0900371AFDF7C0
:1031C000F5FB82462C480068C0F3CB307843009072
:1031D00045E0701C002842D0FDF7E8FBA0EB0A0098
:1031E000B84200D2A7BB2068406820F0E000216808
:1031F00048606068B0F5827F0DD1A068B0F5004FDF
:1032000003D0A068B0F5806F05D12068006820F079
:10321000400021680860A06AB0F5005F0DD100BFD2
:103220002068006820F40050216808602068006869
:1032300040F400502168086000BF012084F851006C
:1032400000BF002084F8500000BF0320BDE8F88FC5
:10325000FFE7009800B900270098401E0090206802
:1032600080682840A84201D1012000E000204045AC
:10327000AFD10020EAE700009C000020704710B5A5
:10328000FDF79AFB10BD00B593B0282109A8FCF703
:1032900062FF142104A8FCF75EFF0020009001905B
:1032A000029003900120099000040A9000200B90E6
:1032B00001200D9002201090C10311914FF4E011F4
:1032C000129109A8FEF702FD08B1FDF798F90F2049
:1032D000049002200590002006904FF48060079033
:1032E00000200890022104A8FEF7E0FB08B1FDF7DA
:1032F00086F910200090002003906846FEF73EFB00
:1033000008B1FDF77CF913B000BD0000114800685A
:1033100040F001000F490860084640680E49084027
:103320000C494860084600680C4908400949086093
:103330000846006820F4802008600846406820F4B1
:10334000FE0048604FF41F008860C803044908600D
:1033500070470000001002400000FFF8FFFFF6FE7B
:1033600008ED00E010B50268184B984208D0B0F1A3
:10337000804F05D0164B984202D0164B984203D18D
:1033800022F070024B681A43104B984208D0B0F1FB
:10339000804F05D00E4B984202D00E4B984203D17D
:1033A00022F44072CB681A4322F080034C6943EA4E
:1033B000040202608B68C3620B688362034B98420D
:1033C00001D10B6903630123436110BD002C01404F
:1033D000000400400008004030B50C46816821F42C
:1033E0007F4142EA032525432943816030BD0A46D7
:1033F000816821F0700142F0070319438160704732
:1034000030B50B461446026A056A25F001050562CF
:10341000816921F0F00141EA041122F00A021A4305
:103420008161026230BD30B50B461446056A25F055
:10343000100505628169026A21F4704141EA043194
:1034400022F0A00242EA03128161026230BD2DE93E
:10345000F04104460D46D4F8B862D4F8C072D4F8EE
:10346000B80278B305EB850104F1140000EB81008C
:10347000806808B305EB850104F1140000EB8100BE
:1034800005EB8502816807F1280000EBC2000069A6
:10349000B1FBF0F200FB121070B9002105EB8502C0
:1034A00004F1140000EB8200816000231A462946D3
:1034B000204600F0CDFE02E00020C6F814020020F5
:1034C000BDE8F081FFE70220FAE770B504460E463A
:1034D000D4F8B8523146204600F05FFDC5F80C0222
:1034E000D4F8B80248B1D5F80402D4F8BC12CA68BE
:1034F00005F503719047002070BD0220FCE770B510
:1035000004460E4600258121204600F060FC002183
:10351000E1620121204600F05AFC0021C4F86C1140
:103520008221204600F053FC00212164D4F8B80227
:1035300050B1D4F8BC1248688047D4F8B80201F002
:1035400030F90020C4F8B802284670BD70B50546B1
:10355000D5F8B842D5F8BC0278B194F80002FF283B
:103560000BD094F8012294F80002D5F8BC128B68B5
:1035700021469847FF2084F80002002070BD00001B
:1035800001460A200880014870470000A40000207E
:103590000146432008800148704700002C010020AC
:1035A000014643200880014870470000E8000020E1
:1035B0000146432008800148704700007001002048
:1035C0002DE9F04104460F460026207C88B94FF4CF
:1035D000007302228121204600F046FD0121E162B4
:1035E0004B020222204600F03FFD0121C4F86C117D
:1035F0000FE0402302228121204600F035FD012109
:10360000E16240230222204600F02EFD0121C4F891
:103610006C11082303228221204600F025FD0121A0
:1036200021644FF4077001F0BDF8C4F8B802D4F873
:10363000B80208B901261CE0D4F8B852D4F8BC127C
:10364000086880470020C5F81402C5F81802207CDD
:1036500040B94FF4007301212046D5F8042200F050
:103660001BFD06E0402301212046D5F8042200F08E
:1036700013FD3046BDE8F08170B50446D4F8B85269
:10368000D4F8B80298B1207C40B94FF400730121FE
:103690002046D5F8042200F0FFFC06E0402301217B
:1036A0002046D5F8042200F0F7FC002070BD02206F
:1036B000FCE70246022011B1C2F8BC12002070479C
:1036C0000246D2F8B832C3F804120020704710B591
:1036D0000346D3F8B842C4F80812C4F810220020F8
:1036E00010BD2DE9FC4105460C46D5F8B862002016
:1036F000019000900027207800F0600040B320285F
:103700005FD1E088E0B1207800F0800060B1E2880D
:103710006078D5F8BC128B6831469847E28831460C
:10372000284600F0E6F812E0607886F80002A079FA
:1037300086F80102E2883146284600F0B9F806E032
:103740006078D5F8BC1200228B68214698473EE08D
:10375000607820B10A2812D00B282AD11FE095F8F2
:103760009C02032805D102226946284600F0C1F8D0
:1037700004E02146284600F08FF802271FE095F864
:103780009C02032805D1012201A9284600F0B1F8C6
:1037900004E02146284600F07FF802270FE095F864
:1037A0009C02032804D02146284600F075F8022721
:1037B00005E02146284600F06FF8022700BF00BF51
:1037C00005E02146284600F067F8022700BF00BF49
:1037D0003846BDE8FC8170B50546D5F8B842D5F845
:1037E000B802A8B1D4F8140280B90120C4F81402B8
:1037F000D4F810122963B4F8100283B2812128464C
:10380000D4F8082200F024FD002070BD0120FCE760
:103810000220FAE770B504460D46D4F8B4022946F2
:10382000426820469047002070BD70B504460D46A2
:1038300094F89C02012804D0022803D003280CD15C
:1038400001E000BF00BF6888012805D10020C4F84E
:10385000A402204600F05EF804E02946204600F06D
:103860001BF800BF00BF70BD70B506460C4615467C
:103870002B4622460021304600F00EFC002070BD91
:1038800070B506460C4615462B46224600213046AA
:1038900000F0DEFC002070BD70B504460D468021AE
:1038A000204600F0A9FC0021204600F0A5FC70BDD8
:1038B00070B504460E4615460320C4F894024FF432
:1038C000AE700551001D05512B46324600212046A1
:1038D00000F0E2FB002070BD10B504460520C4F8DE
:1038E000940200231A461946204600F0D5FB00201A
:1038F00010BD70B504460E4615460220C4F8940269
:10390000E56125622B4632460021204600F0A0FCEE
:10391000002070BD10B504460420C4F894020023B2
:103920001A461946204600F093FC002010BD000006
:1039300070B505460C462DB92246064906A000F092
:10394000DBF904E02246034903A000F0D5F9014861
:1039500070BD0000DC14002043444320436F6E66BA
:103960006967000002461220088001487047000085
:103970004800002070B505460C462DB92246064980
:1039800006A000F0B9F904E02246034903A000F0C4
:10399000B3F9014870BD0000DC140020434443200B
:1039A000496E74657266616365000000024604201A
:1039B00008800148704700005C00002070B5054693
:1039C0000C462246024903A000F096F9004870BD5B
:1039D000DC14002053544D6963726F656C65637429
:1039E000726F6E696373000070B505460C462DB9A1
:1039F0002246064906A000F07FF904E0224603496A
:103A000003A000F079F9014870BD0000DC1400202B
:103A100053544D3332205669727475616C20436F74
:103A20006D506F727400000070B505460C461A2088
:103A30002080FCF7E7FD014870BD00006000002019
:103A400070B504460D46E888012804D02946204672
:103A5000FFF722FF1EE094F89C02012804D0022800
:103A600003D0032810D109E000BF0020A06001228C
:103A700004F108012046FFF73CFF0AE00122211D66
:103A80002046FFF736FF04E029462046FFF704FFF3
:103A900000BF00BF70BDF8B504460E460020009080
:103AA0000027002570880012082875D2DFE800F092
:103AB000C7040C20C7C7A5B5207CD4F8B0120A688B
:103AC000694690470746C1E0207C40B9D4F8B4026B
:103AD000816A6846884707460220787007E0D4F874
:103AE000B402C16A68468847074602207870ADE094
:103AF000B078062878D2DFE800F00316293C50633E
:103B0000D4F8B002406838B1207CD4F8B0124A68CA
:103B100069469047074605E031462046FFF7BCFE60
:103B2000681CC5B267E0D4F8B002806838B1207C68
:103B3000D4F8B0128A6869469047074605E03146D6
:103B40002046FFF7A9FE681CC5B254E0D4F8B002C5
:103B5000C06838B1207CD4F8B012CA686946904772
:103B6000074605E031462046FFF796FE681CC5B2C1
:103B700041E0D4F8B002006938B1207CD4F8B0122A
:103B80000A6969469047074605E031462046FFF737
:103B900083FE681CC5B22EE051E0D4F8B002406943
:103BA00038B1207CD4F8B0124A696946904707467C
:103BB00005E031462046FFF76FFE681CC5B21AE0EB
:103BC000D4F8B002806940B1207CD4F8B0128A6980
:103BD00069469047074606E006E031462046FFF773
:103BE0005BFE681CC5B206E031462046FFF754FE76
:103BF000681CC5B200BF00BF28E0207C30B9D4F8F3
:103C0000B402416B68468847074605E031462046C6
:103C1000FFF742FE681CC5B218E0207C40B9D4F81A
:103C2000B402016B6846884707460720787005E0B4
:103C300031462046FFF730FE681CC5B206E031462B
:103C40002046FFF729FE681CC5B200BF00BF05B1C2
:103C5000F8BDBDF8000088B1F08878B1F088BDF8F3
:103C60000010884202DDBDF8000000E0F0880090FE
:103C7000BDF8002039462046FFF73BFEF08810B91A
:103C80002046FFF747FE00BFE2E70146002002E0C2
:103C9000421CD0B2491C0A78002AF9D1704770B58D
:103CA00004460D4694F89C02012804D0022803D053
:103CB00003281AD101E000BF00BFE888022804D021
:103CC00029462046FFF7E8FD14E00120E060D4F823
:103CD000A40218B1E06840F00200E060022204F1A2
:103CE0000C012046FFF705FE04E029462046FFF7B9
:103CF000D3FD00BF00BF70BD2DE9F04104460D4665
:103D000017460026FCB12046FFF7BFFF022101EB5A
:103D1000400038803A783046711CCEB22A540322D3
:103D20003046711CCEB22A540AE014F8012B3046FA
:103D3000711CCEB22A5400223046711CCEB22A54D5
:103D400020780028F1D1BDE8F0810146002031B192
:103D5000012906D0022906D0032908D105E0002058
:103D600007E0022005E0012003E0022001E002203C
:103D700000BF00BF704770B504460D4616460CB92B
:103D8000022070BDD4F8B40210B10020C4F8B4020F
:103D90000DB1C4F8B052012084F89C022670204670
:103DA00000F004F90020ECE72DE9F04104460D464F
:103DB000002600272946D4F8C002FCF747FF064634
:103DC0003046FFF7C2FF07463846BDE8F0812DE9CF
:103DD000F04104460D46002600272946D4F8C002CB
:103DE000FCF7FFFE06463046FFF7AFFF07463846B2
:103DF000BDE8F0812DE9F04104460E461746002E3D
:103E000064D104F11405D4F89402022848D1D5E90C
:103E10000301884210D9D5E90301401AE860A88956
:103E200082B239462046FFF72BFD00231A46194679
:103E3000204600F031F93EE02969A868B0FBF1F2B4
:103E400001FB1200B8B92969A868884213D3A86891
:103E5000D4F8981288420ED2002211462046FFF76D
:103E60000FFD0020C4F8980200231A461946204688
:103E700000F012F91FE0D4F8B402C06840B194F821
:103E80009C02032804D1D4F8B402C16820468847B4
:103E90008021204600F0B0F92046FFF71DFD0AE022
:103EA000D4F89402042802D0D4F8940218B98021DE
:103EB000204600F0A1F994F8A002012818D120466C
:103EC00000F0FAF9002084F8A00211E0D4F8B4025E
:103ED000406950B194F89C02032806D1D4F8B4028A
:103EE000314642692046904702E00220BDE8F08159
:103EF0000020FBE72DE9F04104460E461746BEBB05
:103F000004F5AA75D4F89402032825D1D5E9030154
:103F1000884210D9D5E90301401AE860D5E90301C8
:103F2000884201D2E86800E0286982B2394620461A
:103F3000FFF79AFC2FE0D4F8B402006940B194F87E
:103F40009C02032804D1D4F8B402016920468847B2
:103F50002046FFF7DFFC1EE0D4F8940205281AD1B2
:103F60000020C4F894020021204600F045F912E038
:103F7000FFE7D4F8B402806950B194F89C0203289A
:103F800006D1D4F8B402314682692046904702E057
:103F90000220BDE8F0810020FBE770B504460D4625
:103FA0002946D4F8C002FDF7CFF970BD10B504461C
:103FB0001D48C0F8E842C4F8C0021C481A4908600D
:103FC0000820486002211848816000218161C16198
:103FD0000162FDF790FB08B1FCF711FB04F53074AA
:103FE0001823002211462068FCF7B8FD5823002250
:103FF00080212068FCF7B2FDC023002281212068C7
:10400000FCF7ACFD4FF48873002201212068FCF717
:10401000A5FD2068A4F530744FF48073002282213E
:10402000FCF79CFD002010BDD00F0020005C00407C
:1040300010B50246D2F8C03201F08000802809D1C4
:1040400001F07F0000EB800403F1280000EBC400C6
:10405000807810BD01F07F0000EB800403F5B470A0
:1040600000EBC4008078F4E72DE9F04704460F46E2
:1040700015461E464FF00008C1462B4632463946CB
:10408000D4F8C002FDF76BF980464046FFF75DFEAD
:1040900081464846BDE8F0872DE9F04704460D46C5
:1040A00016461F464FF00008C1463B463246294699
:1040B000D4F8C002FDF799F980464046FFF745FE67
:1040C00081464846BDE8F08710B5044640230022EB
:1040D00011462046FFF7C8FF01214FF4AC70015193
:1040E00040214FF4B270015140230022802120462C
:1040F000FFF7BAFF0121A16140216162012084F82C
:104100009C020020C4F894026060C4F8A402D4F8B1
:10411000B80228B12179D4F8B40242682046904709
:10412000002010BD014691F89C02042803D191F8AB
:104130009D0281F89C020020704710B5044694F857
:104140009C02032808D1D4F8B402C06920B1D4F885
:10415000B402C16920468847002010BD0246117490
:10416000002070472DE9F04104460D460026002747
:104170002946D4F8C002FDF7ADFB06463046FFF7EE
:10418000E4FD07463846BDE8F08170B504460D46AB
:10419000294604F52A7000F073F80120C4F894024F
:1041A00040F2AE20005BC4F8980294F8A80200F038
:1041B0001F0020B1012808D0022812D10BE004F51D
:1041C0002A71204600F041F913E004F52A712046D7
:1041D00000F0A8FA0DE004F52A71204600F086F9F7
:1041E00007E094F8A80200F08001204600F004F8EF
:1041F00000BF00BF002070BD2DE9F04104460D4610
:10420000002600272946D4F8C002FDF714F9064617
:104210003046FFF79AFD07463846BDE8F08170B595
:10422000044600250026D4F8C002FDF777FB0546BA
:104230002846FFF78AFD0646304670BD014691F8D4
:104240009C0281F89D02042081F89C0200207047A6
:104250002DE9F04704460D4616461F464FF000086C
:10426000C1463B4632462946D4F8C002FDF727F93D
:1042700080464046FFF769FD81464846BDE8F08725
:104280000A7802704A7842708B78CA7803EB02226F
:1042900042800B794A7903EB022282808B79CA79BA
:1042A00003EB0222C28070470246002011B1C2F81F
:1042B000B41200E00220704701460020704770B53C
:1042C00004460D46A88810BBE88800BB6888802893
:1042D0001DD2A87800F07F0694F89C02032804D130
:1042E00029462046FFF7D8FA15E084F89E62314649
:1042F0002046FFF737FF2046FFF70CFB1EB10220D8
:1043000084F89C0207E0012084F89C0203E029461F
:104310002046FFF7C1FA70BD70B504460D4602266F
:10432000D4F8B40238B1D4F8B40229460268204661
:10433000904700B90026304670BD000070B50446B5
:104340000D46A8783649087008460078012804DD33
:1043500029462046FFF7A0FA60E094F89C02022864
:1043600002D003284FD11CE02D480078A8B12C487A
:1043700000786060032084F89C0229480178204678
:10438000FFF7CAFF022804D129462046FFF784FA26
:1043900070BD2046FFF7BEFA02E02046FFF7BAFAEA
:1043A0003BE01F48007870B9022084F89C021C484A
:1043B000007860601A4801782046FFF72BFA204603
:1043C000FFF7A8FA1EE0164909786068884216D0FF
:1043D00021792046FFF71EFA1148007860601048E6
:1043E00001782046FFF798FF022804D1294620468D
:1043F000FFF752FACCE72046FFF78CFA02E020469E
:10440000FFF788FA09E029462046FFF745FA0448F5
:1044100001782046FFF7FEF900BF00BF00BFB7E7F5
:10442000A000002070B505460C466088012804D124
:10443000C5F8A4022846FFF76DFA70BD10B5044612
:104440002046FFF7ECFE002010BD70B505460C4677
:104450000026207800F0600060B1202802D04028BB
:104460003CD100E000BFD5F8B4022146826828465E
:10447000904738E060780A2829D2DFE800F0192355
:10448000281E280A0528140F21462846FFF703FB9B
:1044900022E021462846FFF712FF1DE0214628466C
:1044A000FFF74CFF18E021462846FFF7C9FA13E052
:1044B00021462846FFF7F3FB0EE021462846FFF78A
:1044C000B1FF09E021462846FFF7AFF904E0214695
:1044D0002846FFF7E1F900BF00BF04E02146284667
:1044E000FFF7DAF900BF00BF304670BD2DE9F0419B
:1044F00005460E464FF000083479307800F0600031
:1045000060B1202802D0402871D100E000BFD5F86A
:10451000B402314682682846904700E1307800F0C6
:104520006000202809D1D5F8B402314682682846B7
:10453000904780464046BDE8F081707800285ED004
:1045400001282FD0032876D195F89C02022802D0AA
:10455000032820D110E054B1802C08D021462846F1
:10456000FFF74AFE80212846FFF746FE03E031466A
:104570002846FFF791F913E0708840B93CB1802CD0
:1045800005D0F08818B921462846FFF735FE2846A1
:10459000FFF7C0F904E031462846FFF77DF900BF78
:1045A00000BFB5E095F89C02022802D003281FD175
:1045B00010E054B1802C08D021462846FFF71CFE9D
:1045C00080212846FFF718FE03E031462846FFF712
:1045D00063F912E0708848B904F07F0018B12146F1
:1045E0002846FFF7E1FB2846FFF794F905E091E044
:1045F00031462846FFF750F900BF00BF88E095F824
:104600009C02022802D0032876D126E034B1802C07
:1046100004D031462846FFF73FF972E004F08000ED
:10462000802809D104F07F0000EB800105F114001F
:1046300000EB810008E066E004F07F0000EB800101
:1046400005F5AA7000EB81000746002038600222C1
:1046500039462846FFF74DF953E004F080008028E2
:104660000ED104F00F0000EB800105F1140000EB07
:104670008100406898B931462846FFF70DF940E0BF
:1046800004F00F0000EB800105F5AA7000EB81003B
:10469000406820B931462846FFF7FEF831E004F0C3
:1046A0008000802808D104F07F0000EB800105F134
:1046B000140000EB810007E004F07F0000EB8001B4
:1046C00005F5AA7000EB810007460CB1802C02D1E1
:1046D0000020386009E021462846FFF7A9FC10B108
:1046E0000120386001E00020386002223946284667
:1046F000FFF7FFF805E0FFE731462846FFF7CCF863
:1047000000BF00BF04E031462846FFF7C5F800BFF0
:1047100000BF04E031462846FFF7BEF800BF00BFE7
:10472000404608E770B505460C460026207800F0A4
:10473000600030B1202802D040282AD100E000BF1C
:1047400000BF95F89C02012804D0022803D003285A
:1047500018D101E000BF00BF207901280DDCD5F899
:10476000B40221468268284690470646E08840B950
:104770003EB92846FFF7CEF803E021462846FFF76A
:104780008BF804E021462846FFF786F800BF00BFFB
:1047900004E021462846FFF77FF800BF00BF002055
:1047A00070BD70470146014870470000BC120020F0
:1047B000F0B5024600260878400032F8100048F6AE
:1047C0008F1400EA0403C87830B101280CD0022805
:1047D00005D003280BD104E043F4007309E000BFC7
:1047E00007E043F4C06304E043F4806301E0012682
:1047F00000BF00BF43F4004040F080000C7864002C
:1048000022F8140000BF0C78640032F8144048F617
:104810008F752C400D7844EA050040F4004444F0C4
:1048200080040D786D0022F8154000BF087B002839
:104830007ED14878002852D000BF1046B2F85050C0
:1048400028440D7800F5806707EB0514CD886D10BE
:104850006D00258000BF00BF0C78640032F81400A2
:1048600000F040048CB100BF0D786D0032F8155097
:1048700048F68F7705EA070444F4004545F0C00583
:104880000F787F0022F8175000BF00BFC8780128BA
:1048900013D000BF0C78640032F8144048F6BF759E
:1048A00004EA050080F0200040F4004444F0800455
:1048B0000D786D0022F815409EE100BF0C78640071
:1048C00032F8144048F6BF7504EA050040F400448D
:1048D00044F080040D786D0022F815408CE100BF93
:1048E0001046B2F8505028440D78042707EBC50550
:1048F00000F5806707EB4504CD886D106D002580BD
:1049000000BF00BF1546B2F8504025440C7806277A
:1049100007EBC40405F5806707EB4404204600BF9D
:104920000F6967B9078848F2FF3C07EA0C0700E007
:1049300057E00780078847F4004707801EE00F69AB
:104940003E2F0DD800BF0F697C080F7C07F00107D0
:1049500007B1641C4FF6FF7707EA842707800DE054
:1049600000BF0F697C090F7C07F01F0707B9641EA1
:104970004FF4004747EA8427078000BF00BF00BF0D
:1049800000BF0C78640032F8140000F480448CB14D
:1049900000BF0D786D0032F8155048F68F7705EAA4
:1049A000070444F4004545F481450F787F0022F860
:1049B000175000BF00BF00BF0C78640032F81440ED
:1049C0004BF68F7504EA050080F4805080F40050A7
:1049D00040F4004444F080040D786D0022F8154046
:1049E0000AE100BF0C78640032F8144048F68F7575
:1049F00004EA050040F4004444F4C0740D786D00EE
:104A000022F8154000BF00BF00BF00BF1046B2F83B
:104A1000505028440D7800F5806707EB05140D8988
:104A20006D106D00258000BF00BF00BF00BF1046A5
:104A3000B2F8505028440D78042707EBC50500F55F
:104A4000806707EB45044D896D106D00258000BF20
:104A500000BF00BF487800285DD100BF0C7864001B
:104A600032F8140000F480448CB100BF0D786D0062
:104A700032F8155048F68F7705EA070444F40045EC
:104A800045F481450F787F0022F8175000BF00BF22
:104A900000BF0C78640032F8140000F040048CB1C0
:104AA00000BF0D786D0032F8155048F68F7705EA93
:104AB000070444F4004545F0C0050F787F0022F854
:104AC000175000BF00BF00BF0C78640032F81440DC
:104AD0004BF68F7504EA050080F4805080F4005096
:104AE00040F4004444F080040D786D0022F8154035
:104AF00000BF00BF0C78640032F8144048F6BF7560
:104B000004EA050040F4004444F080040D786D0090
:104B100022F8154070E000BF0C78640032F81400F1
:104B200000F480448CB100BF0D786D0032F8155050
:104B300048F68F7705EA070444F4004545F48145BB
:104B40000F787F0022F8175000BF00BF00BF0C781D
:104B5000640032F8140000F040048CB100BF0D78FE
:104B60006D0032F8155048F68F7705EA070444F4D3
:104B7000004545F0C0050F787F0022F8175000BFB0
:104B800000BFC878012813D000BF0C78640032F849
:104B9000144048F6BF7504EA050080F0200040F498
:104BA000004444F080040D786D0022F8154011E0B7
:104BB00000BF0C78640032F8144048F6BF7504EA70
:104BC000050040F4004444F080040D786D0022F8A4
:104BD000154000BF00BF0C78640032F814404BF65B
:104BE0008F7504EA050040F4004444F080040D7819
:104BF0006D0022F8154000BF3046F0BD10B50446E8
:104C0000002010BD30B50246087B00285BD14878F3
:104C100060B300BF0B785B0032F8130000F0400374
:104C20008BB100BF0C78640032F8144048F68F75E1
:104C300004EA050343F4004444F0C0040D786D0019
:104C400022F8154000BF00BF00BF0B785B0032F8B0
:104C5000133048F6BF7403EA040040F4004343F005
:104C600080030C78640022F8143007E100BF0B7851
:104C70005B0032F8130000F480438BB100BF0C7866
:104C8000640032F8144048F68F7504EA050343F4D3
:104C9000004444F481440D786D0022F8154000BFB3
:104CA00000BF00BF0B785B0032F813304BF68F74F7
:104CB00003EA040040F4004343F080030C786400EE
:104CC00022F81430DAE0487800286BD100BF0B7866
:104CD0005B0032F8130000F480438BB100BF0C7806
:104CE000640032F8144048F68F7504EA050343F473
:104CF000004444F481440D786D0022F8154000BF53
:104D000000BF00BF0B785B0032F8130000F04003D7
:104D10008BB100BF0C78640032F8144048F68F75F0
:104D200004EA050343F4004444F0C0040D786D0028
:104D300022F8154000BF00BF00BF0B785B0032F8BF
:104D4000133048F68F7403EA040040F4004343F044
:104D5000C0030C78640022F8143000BF00BF0B7849
:104D60005B0032F813304BF68F7403EA040040F412
:104D7000004343F080030C78640022F8143000BF35
:104D800000BF0B785B0032F8133048F6BF7403EABB
:104D9000040040F4004343F080030C78640022F8E0
:104DA00014306BE000BF0B785B0032F8130000F4A6
:104DB00080438BB100BF0C78640032F8144048F691
:104DC0008F7504EA050343F4004444F481440D78EC
:104DD0006D0022F8154000BF00BF00BF0B785B00DC
:104DE00032F8130000F040038BB100BF0C78640070
:104DF00032F8144048F68F7504EA050343F4004482
:104E000044F0C0040D786D0022F8154000BF00BFCB
:104E100000BF0B785B0032F8133048F68F7403EA5A
:104E2000040040F4004343F481430C78640022F80A
:104E3000143000BF00BF0B785B0032F8133048F627
:104E4000BF7403EA040040F4004343F080030C788D
:104E5000640022F8143000BF00BF0B785B0032F80A
:104E600013304BF68F7403EA040040F4004343F020
:104E700080030C78640022F8143000BF002030BD9D
:104E800001460020704701460020704710B50446D7
:104E9000012024F8400F00202080A0802082403C88
:104EA00010BD01464FF43F42B1F840009043A1F8D5
:104EB00040000020704702460020704730B502468F
:104EC000087B002865D1487888B300BF0B785B0069
:104ED00032F8130000F040038BB100BF0C7864007F
:104EE00032F8144048F68F7504EA050343F4004491
:104EF00044F0C0040D786D0022F8154000BF00BFDB
:104F0000C878012845D000BF0B785B0032F8133019
:104F100048F6BF7403EA040080F0200040F4004328
:104F200043F080030C78640022F8143031E0FFE78E
:104F300000BF0B785B0032F8130000F480438BB1A4
:104F400000BF0C78640032F8144048F68F7504EA0C
:104F5000050343F4004444F481440D786D0022F8C5
:104F6000154000BF00BF00BF0B785B0032F8133064
:104F70004BF68F7403EA040080F4805080F40050F4
:104F800040F4004343F080030C78640022F81430AE
:104F900000BF002030BD10B50246487898B100BF70
:104FA0000B785B0032F8133048F6BF7403EA040054
:104FB00080F0100040F4004343F080030C7864005C
:104FC00022F8143013E000BF0B785B0032F8133086
:104FD0004BF68F7403EA040080F4805040F40043E1
:104FE00043F080030C78640022F8143000BF0020E6
:104FF00010BD2DE9F04706460C466078012876D1B1
:105000002169A069884201D9256900E0A569207B52
:10501000A0B9ABB2E2883046616900F0F4FD00BF90
:105020003046B6F8502010442278022303EBC20227
:1050300000F5806303EB42010D8081E3E0780228F4
:105040007DD12169206A88427AD900BF2178490040
:1050500036F8111048F68F7201EA020040F4004160
:1050600041F4C0712278520026F8121000BF206A65
:10507000401B20622078400036F8100000F040000D
:1050800000287DD000BF3346607888BB00BF324621
:10509000B6F850100A4421784FF0060909EBC10117
:1050A00002F5806909EB4101084600BF75B9B0F807
:1050B000009048F2FF3A09EA0A09A0F80090B0F817
:1050C000009049F40049A0F8009021E03E2D10D84E
:1050D00000BF690805F00109B9F1000F00D0491CB3
:1050E0004FF6FF7909EA8129A0F8009010E03DE32E
:1050F00010E000BF690905F01F09B9F1000F00D1E8
:10510000491E4FF4004949EA8129A0F8009000BFE8
:1051100000BF0FE0607801280CD1B6F850000344BE
:105120002078062101EBC00003F5806101EB400C03
:10513000ACF8005000BF6789ABB23A4601E057E1D6
:105140002CE13046616900F05EFD606928446061D1
:105150002169206A884203D9206A401B206202E04C
:10516000256A0020206200BF6078C0BB00BF3246C5
:10517000B6F850100A442178022303EBC10100E085
:1051800049E002F5806303EB4101084600BF55B9D1
:10519000038848F2FF3C03EA0C030380038843F4CE
:1051A0000043038019E03E2D0BD800BF690805F0CD
:1051B000010303B1491C4FF6FF7303EA8123038007
:1051C0000BE000BF690905F01F0303B9491E4FF446
:1051D000004343EA8123038000BF00BF12E0FFE7E2
:1051E000607801280ED100BF3046B6F85020104438
:1051F0002278022303EBC20200F5806303EB420135
:105200000D8000BF00BF2789ABB23A4630466169C6
:1052100000F0F9FC94E200BF6078B0BB00BF3246FA
:10522000B6F850100A442178022303EBC10102F5BD
:10523000806303EB4101084600BF55B9038848F27B
:10524000FF3C03EA0C030380038843F4004303801C
:1052500019E03E2D0BD800BF690805F0010303B12A
:10526000491C4FF6FF7303EA812303800BE000BF64
:10527000690905F01F0303B9491E4FF4004343EACF
:105280008123038000BF00BF12E0FFE760780128A0
:105290000ED100BF3046B6F85020104422780223C9
:1052A00003EBC20200F5806303EB42010D8000BFF7
:1052B00000BF2789ABB23A463046616900F0A3FCD3
:1052C0006069284460612169206A884203D9206AA4
:1052D000401B206202E0256A0020206200BF3346A6
:1052E000607880BB00BF3246B6F850100A4421787F
:1052F0004FF0060909EBC10102F5806909EB410194
:10530000084600BF75B9B0F8009048F2FF3A09EAC4
:105310000A09A0F80090B0F8009049F40049A0F8FC
:10532000009020E03E2D0FD800BF690805F001096C
:10533000B9F1000F00D0491C4FF6FF7909EA812925
:10534000A0F800900FE010E000BF690905F01F0908
:10535000B9F1000F00D1491E4FF4004949EA8129F3
:10536000A0F8009000BF00BF0FE0607801280CD1CA
:10537000B6F8500003442078062101EBC00003F585
:10538000806101EB400CACF8005000BF6789ABB204
:105390003A463046616900F036FCD1E1256A00BF2B
:1053A0002178490036F8111048F68F6201EA0200B0
:1053B00040F4004141F080012278520026F812109A
:1053C00000BF00BF3046B6F85020104422780223B8
:1053D00003EBC20200F5806303EB42010D8000BFC6
:1053E0002789ABB23A463046616900F00CFCA7E170
:1053F00000BF2178490036F8111048F68F7201EA93
:10540000020040F4004141F4C0712278520026F8B5
:10541000121000BF206A401B20622078400036F83E
:10542000100000F0400000287DD000BF33466078B7
:1054300080BB00BF3246B6F850100A4421784FF0C6
:10544000060909EBC10102F5806909EB4101084633
:1054500000BF75B9B0F8009048F2FF3A09EA0A09AE
:10546000A0F80090B0F8009049F40049A0F800902E
:1054700020E03E2D0FD800BF690805F00109B9F101
:10548000000F00D0491C4FF6FF7909EA8129A0F8E6
:1054900000900FE010E000BF690905F01F09B9F1A5
:1054A000000F00D1491E4FF4004949EA8129A0F8B4
:1054B000009000BF00BF0FE0607801280CD1B6F863
:1054C000500003442078062101EBC00003F5806101
:1054D00001EB400CACF8005000BF6789ABB23A4614
:1054E0003046616900F08FFB606928446061216982
:1054F000206A884203D9206A401B206202E0256AA4
:1055000000202062002D56D000BF6078C0BB00BFD5
:105510003246B6F850100A442178022303EBC10149
:1055200002F5806300E047E003EB4101084600BF5D
:1055300055B9038848F2FF3C03EA0C030380038853
:1055400043F40043038019E03E2D0BD800BF6908E7
:1055500005F0010303B1491C4FF6FF7303EA8123F1
:1055600003800BE000BF690905F01F0303B9491E62
:105570004FF4004343EA8123038000BF00BF12E0E1
:10558000FFE7607801280ED100BF3046B6F8502002
:1055900010442278022303EBC20200F5806303EB80
:1055A00042010D8000BF00BF2789ABB23A463046AA
:1055B000616900F028FBC3E000BF6078B0BB00BFAA
:1055C0003246B6F850100A442178022303EBC10199
:1055D00002F5806303EB4101084600BF55B903881B
:1055E00048F2FF3C03EA0C030380038843F40043C2
:1055F000038019E03E2D0BD800BF690805F00103B8
:1056000003B1491C4FF6FF7303EA812303800BE0CB
:1056100000BF690905F01F0303B9491E4FF4004399
:1056200043EA8123038000BF00BF12E0FFE76078F8
:1056300001280ED100BF3046B6F850201044227821
:10564000022303EBC20200F5806303EB42010D80ED
:1056500000BF00BF2789ABB23A463046616900F00F
:10566000D2FA6069284460612169206A884203D9BE
:10567000206A401B206202E0256A00202062A5B358
:1056800000BF3346607888BB00BF3246B6F8501082
:105690000A4421784FF0060909EBC10102F580693F
:1056A00009EB4101084600BF75B9B0F8009048F217
:1056B000FF3A09EA0A09A0F80090B0F8009049F40E
:1056C0000049A0F8009021E03E2D10D800BF6908E5
:1056D00005F00109B9F1000F00D0491C4FF6FF7920
:1056E00009EA8129A0F8009010E029E010E000BF4D
:1056F000690905F01F09B9F1000F00D1491E4FF4E7
:10570000004949EA8129A0F8009000BF00BF0FE0DE
:10571000607801280CD1B6F85000034420780621A7
:1057200001EBC00003F5806101EB400CACF80050C8
:1057300000BF6789ABB23A463046616900F063FA50
:1057400000BF2178490036F8111048F6BF7201EA0F
:10575000020080F0100080F0200040F4004141F091
:1057600080012278520026F8121005E2207BA0BBAF
:105770002169A069884204D92569A069401BA061FC
:1057800002E0A5690020A06100BF3246B6F85010C3
:105790000A442178062303EBC10102F5806303EB81
:1057A0004101084600BF55B9038848F2FF3C03EAAF
:1057B0000C030380038843F4004303801AE03E2D6A
:1057C0000CD800BF690805F0010303B1491C4FF66E
:1057D000FF7303EA812303800CE00DE000BF690939
:1057E00005F01F0303B9491E4FF4004343EA812328
:1057F000038000BF00BFA9E1E07802287DD100BF8F
:1058000000BF6078E0BB00BF3246B6F850100A44D3
:105810002178022303EBC10102F5806303EB410110
:10582000084600BF236953B9038848F2FF3C03EAE6
:105830000C030380038843F4004303801EE02369C4
:105840003E2B0DD800BF23695908237C03F00103C8
:1058500003B1491C4FF6FF7303EA812303800DE077
:1058600000BF23695909237C03F01F0303B9491EB4
:105870004FF4004343EA8123038000BF00BF13E0DD
:10588000FFE7607801280FD100BF3046B6F85020FE
:1058900010442278022303EBC20200F5806303EB7D
:1058A0004201228A0A8000BF00BF00BF33466078F1
:1058B000E8BB00BF3246B6F850100A4421784FF0DA
:1058C000060909EBC10102F5806909EB41010846AF
:1058D00000BFD4F81090B9F1000F0FD1B0F80090CC
:1058E00048F2FF3A09EA0A09A0F80090B0F80090DF
:1058F00049F40049A0F800902EE06BE0D4F8109035
:10590000B9F13E0F14D800BFD4F810904FEA5901F6
:1059100094F8109009F00109B9F1000F00D0491C6A
:105920004FF6FF7909EA8129A0F8009014E015E00C
:1059300000BFD4F810904FEA591194F8109009F074
:105940001F09B9F1000F00D1491E4FF4004949EA7F
:105950008129A0F8009000BF00BF10E06078012806
:105960000DD1B6F8500003442078062101EBC000A9
:1059700003F5806101EB400C208AACF8000000BF09
:1059800000BFE069002824D02078400036F810805D
:1059900008F4804010B108F0400038B908F48040A5
:1059A000002816D108F04000002812D100BF00BF27
:1059B0002178490036F8111048F68F7201EA02008A
:1059C00040F4004141F0C0012278520026F8121044
:1059D00000BFBBE0E07801287CD12169A069884242
:1059E00004D92569A069401BA06102E0A5690020D7
:1059F000A06100BF00BF6078B0BB00BF3246B6F800
:105A000050100A442178022303EBC10102F58063A0
:105A100003EB4101084600BF55B9038848F2FF3C3B
:105A200003EA0C030380038843F40043038019E076
:105A30003E2D0BD800BF690805F0010303B1491CD6
:105A40004FF6FF7303EA812303800BE000BF69096F
:105A500005F01F0303B9491E4FF4004343EA8123B5
:105A6000038000BF00BF12E0FFE7607801280ED17D
:105A700000BF3046B6F8502010442278022303EBD2
:105A8000C20200F5806303EB42010D8000BF00BF3E
:105A900000BF3346607890BB00BF3246B6F8501066
:105AA0000A4421784FF0060909EBC10102F580692B
:105AB00009EB4101084600BF85B9B0F8009048F2F3
:105AC000FF3A09EA0A09A0F80090B0F8009049F4FA
:105AD000004900E037E0A0F8009020E03E2D0FD80C
